{
  "_format": "hh-sol-artifact-1",
  "contractName": "StudentRecommendation",
  "sourceName": "contracts/studentRecommendation.sol",
  "abi": [
    {
      "inputs": [],
      "stateMutability": "nonpayable",
      "type": "constructor"
    },
    {
      "inputs": [
        {
          "internalType": "string",
          "name": "_name",
          "type": "string"
        },
        {
          "internalType": "string",
          "name": "_course",
          "type": "string"
        },
        {
          "internalType": "string",
          "name": "_email",
          "type": "string"
        }
      ],
      "name": "addStudent",
      "outputs": [],
      "stateMutability": "nonpayable",
      "type": "function"
    },
    {
      "inputs": [
        {
          "internalType": "uint256",
          "name": "_studentId",
          "type": "uint256"
        }
      ],
      "name": "approveRecommendation",
      "outputs": [],
      "stateMutability": "nonpayable",
      "type": "function"
    },
    {
      "inputs": [
        {
          "internalType": "address",
          "name": "",
          "type": "address"
        }
      ],
      "name": "approvers",
      "outputs": [
        {
          "internalType": "bool",
          "name": "",
          "type": "bool"
        }
      ],
      "stateMutability": "view",
      "type": "function"
    },
    {
      "inputs": [
        {
          "internalType": "address",
          "name": "_approver",
          "type": "address"
        }
      ],
      "name": "authorizeApprover",
      "outputs": [],
      "stateMutability": "nonpayable",
      "type": "function"
    },
    {
      "inputs": [
        {
          "internalType": "address",
          "name": "_approver",
          "type": "address"
        }
      ],
      "name": "deauthorizeApprover",
      "outputs": [],
      "stateMutability": "nonpayable",
      "type": "function"
    },
    {
      "inputs": [
        {
          "internalType": "uint256",
          "name": "_studentId",
          "type": "uint256"
        }
      ],
      "name": "getStudent",
      "outputs": [
        {
          "internalType": "uint256",
          "name": "",
          "type": "uint256"
        },
        {
          "internalType": "string",
          "name": "",
          "type": "string"
        },
        {
          "internalType": "string",
          "name": "",
          "type": "string"
        },
        {
          "internalType": "string",
          "name": "",
          "type": "string"
        },
        {
          "internalType": "bool",
          "name": "",
          "type": "bool"
        },
        {
          "internalType": "bool",
          "name": "",
          "type": "bool"
        }
      ],
      "stateMutability": "view",
      "type": "function"
    },
    {
      "inputs": [],
      "name": "owner",
      "outputs": [
        {
          "internalType": "address",
          "name": "",
          "type": "address"
        }
      ],
      "stateMutability": "view",
      "type": "function"
    },
    {
      "inputs": [
        {
          "internalType": "uint256",
          "name": "_studentId",
          "type": "uint256"
        }
      ],
      "name": "requestRecommendation",
      "outputs": [],
      "stateMutability": "nonpayable",
      "type": "function"
    },
    {
      "inputs": [],
      "name": "studentCount",
      "outputs": [
        {
          "internalType": "uint256",
          "name": "",
          "type": "uint256"
        }
      ],
      "stateMutability": "view",
      "type": "function"
    },
    {
      "inputs": [
        {
          "internalType": "uint256",
          "name": "",
          "type": "uint256"
        }
      ],
      "name": "students",
      "outputs": [
        {
          "internalType": "uint256",
          "name": "studentId",
          "type": "uint256"
        },
        {
          "internalType": "string",
          "name": "name",
          "type": "string"
        },
        {
          "internalType": "string",
          "name": "course",
          "type": "string"
        },
        {
          "internalType": "string",
          "name": "email",
          "type": "string"
        },
        {
          "internalType": "bool",
          "name": "requested",
          "type": "bool"
        },
        {
          "internalType": "bool",
          "name": "approved",
          "type": "bool"
        }
      ],
      "stateMutability": "view",
      "type": "function"
    }
  ],
  "bytecode": "0x608060405234801561001057600080fd5b50336000806101000a81548173ffffffffffffffffffffffffffffffffffffffff021916908373ffffffffffffffffffffffffffffffffffffffff16021790555061152b806100606000396000f3fe608060405234801561001057600080fd5b506004361061009e5760003560e01c8063aa518b9011610066578063aa518b9014610177578063b26e7c6914610193578063b84ec96a146101af578063d96e5c85146101cb578063e581f9ee146101e75761009e565b806306ead22e146100a35780630a144391146100d85780634bb5531014610108578063642f9163146101245780638da5cb5b14610159575b600080fd5b6100bd60048036038101906100b89190610ba6565b610205565b6040516100cf96959493929190610c8d565b60405180910390f35b6100f260048036038101906100ed9190610d61565b6103f3565b6040516100ff9190610d8e565b60405180910390f35b610122600480360381019061011d9190610ba6565b610413565b005b61013e60048036038101906101399190610ba6565b610592565b60405161015096959493929190610c8d565b60405180910390f35b6101616107e8565b60405161016e9190610db8565b60405180910390f35b610191600480360381019061018c9190610f08565b61080c565b005b6101ad60048036038101906101a89190610d61565b610902565b005b6101c960048036038101906101c49190610ba6565b6109eb565b005b6101e560048036038101906101e09190610d61565b610a6d565b005b6101ef610b56565b6040516101fc9190610faf565b60405180910390f35b600160205280600052604060002060009150905080600001549080600101805461022e90610ff9565b80601f016020809104026020016040519081016040528092919081815260200182805461025a90610ff9565b80156102a75780601f1061027c576101008083540402835291602001916102a7565b820191906000526020600020905b81548152906001019060200180831161028a57829003601f168201915b5050505050908060020180546102bc90610ff9565b80601f01602080910402602001604051908101604052809291908181526020018280546102e890610ff9565b80156103355780601f1061030a57610100808354040283529160200191610335565b820191906000526020600020905b81548152906001019060200180831161031857829003601f168201915b50505050509080600301805461034a90610ff9565b80601f016020809104026020016040519081016040528092919081815260200182805461037690610ff9565b80156103c35780601f10610398576101008083540402835291602001916103c3565b820191906000526020600020905b8154815290600101906020018083116103a657829003601f168201915b5050505050908060040160009054906101000a900460ff16908060040160019054906101000a900460ff16905086565b60026020528060005260406000206000915054906101000a900460ff1681565b60011515600260003373ffffffffffffffffffffffffffffffffffffffff1673ffffffffffffffffffffffffffffffffffffffff16815260200190815260200160002060009054906101000a900460ff161515146104a6576040517f08c379a000000000000000000000000000000000000000000000000000000000815260040161049d90611076565b60405180910390fd5b6000811180156104b857506003548111155b6104f7576040517f08c379a00000000000000000000000000000000000000000000000000000000081526004016104ee906110e2565b60405180910390fd5b600115156001600083815260200190815260200160002060040160009054906101000a900460ff16151514610561576040517f08c379a00000000000000000000000000000000000000000000000000000000081526004016105589061114e565b60405180910390fd5b600180600083815260200190815260200160002060040160016101000a81548160ff02191690831515021790555050565b600060608060606000806000600160008981526020019081526020016000206040518060c0016040529081600082015481526020016001820180546105d690610ff9565b80601f016020809104026020016040519081016040528092919081815260200182805461060290610ff9565b801561064f5780601f106106245761010080835404028352916020019161064f565b820191906000526020600020905b81548152906001019060200180831161063257829003601f168201915b5050505050815260200160028201805461066890610ff9565b80601f016020809104026020016040519081016040528092919081815260200182805461069490610ff9565b80156106e15780601f106106b6576101008083540402835291602001916106e1565b820191906000526020600020905b8154815290600101906020018083116106c457829003601f168201915b505050505081526020016003820180546106fa90610ff9565b80601f016020809104026020016040519081016040528092919081815260200182805461072690610ff9565b80156107735780601f1061074857610100808354040283529160200191610773565b820191906000526020600020905b81548152906001019060200180831161075657829003601f168201915b505050505081526020016004820160009054906101000a900460ff161515151581526020016004820160019054906101000a900460ff1615151515815250509050806000015181602001518260400151836060015184608001518560a001519650965096509650965096505091939550919395565b60008054906101000a900473ffffffffffffffffffffffffffffffffffffffff1681565b6003600081548092919061081f9061119d565b91905055506040518060c0016040528060035481526020018481526020018381526020018281526020016000151581526020016000151581525060016000600354815260200190815260200160002060008201518160000155602082015181600101908161088d9190611391565b5060408201518160020190816108a39190611391565b5060608201518160030190816108b99190611391565b5060808201518160040160006101000a81548160ff02191690831515021790555060a08201518160040160016101000a81548160ff021916908315150217905550905050505050565b60008054906101000a900473ffffffffffffffffffffffffffffffffffffffff1673ffffffffffffffffffffffffffffffffffffffff163373ffffffffffffffffffffffffffffffffffffffff1614610990576040517f08c379a0000000000000000000000000000000000000000000000000000000008152600401610987906114d5565b60405180910390fd5b6001600260008373ffffffffffffffffffffffffffffffffffffffff1673ffffffffffffffffffffffffffffffffffffffff16815260200190815260200160002060006101000a81548160ff02191690831515021790555050565b6000811180156109fd57506003548111155b610a3c576040517f08c379a0000000000000000000000000000000000000000000000000000000008152600401610a33906110e2565b60405180910390fd5b600180600083815260200190815260200160002060040160006101000a81548160ff02191690831515021790555050565b60008054906101000a900473ffffffffffffffffffffffffffffffffffffffff1673ffffffffffffffffffffffffffffffffffffffff163373ffffffffffffffffffffffffffffffffffffffff1614610afb576040517f08c379a0000000000000000000000000000000000000000000000000000000008152600401610af2906114d5565b60405180910390fd5b6000600260008373ffffffffffffffffffffffffffffffffffffffff1673ffffffffffffffffffffffffffffffffffffffff16815260200190815260200160002060006101000a81548160ff02191690831515021790555050565b60035481565b6000604051905090565b600080fd5b600080fd5b6000819050919050565b610b8381610b70565b8114610b8e57600080fd5b50565b600081359050610ba081610b7a565b92915050565b600060208284031215610bbc57610bbb610b66565b5b6000610bca84828501610b91565b91505092915050565b610bdc81610b70565b82525050565b600081519050919050565b600082825260208201905092915050565b60005b83811015610c1c578082015181840152602081019050610c01565b60008484015250505050565b6000601f19601f8301169050919050565b6000610c4482610be2565b610c4e8185610bed565b9350610c5e818560208601610bfe565b610c6781610c28565b840191505092915050565b60008115159050919050565b610c8781610c72565b82525050565b600060c082019050610ca26000830189610bd3565b8181036020830152610cb48188610c39565b90508181036040830152610cc88187610c39565b90508181036060830152610cdc8186610c39565b9050610ceb6080830185610c7e565b610cf860a0830184610c7e565b979650505050505050565b600073ffffffffffffffffffffffffffffffffffffffff82169050919050565b6000610d2e82610d03565b9050919050565b610d3e81610d23565b8114610d4957600080fd5b50565b600081359050610d5b81610d35565b92915050565b600060208284031215610d7757610d76610b66565b5b6000610d8584828501610d4c565b91505092915050565b6000602082019050610da36000830184610c7e565b92915050565b610db281610d23565b82525050565b6000602082019050610dcd6000830184610da9565b92915050565b600080fd5b600080fd5b7f4e487b7100000000000000000000000000000000000000000000000000000000600052604160045260246000fd5b610e1582610c28565b810181811067ffffffffffffffff82111715610e3457610e33610ddd565b5b80604052505050565b6000610e47610b5c565b9050610e538282610e0c565b919050565b600067ffffffffffffffff821115610e7357610e72610ddd565b5b610e7c82610c28565b9050602081019050919050565b82818337600083830152505050565b6000610eab610ea684610e58565b610e3d565b905082815260208101848484011115610ec757610ec6610dd8565b5b610ed2848285610e89565b509392505050565b600082601f830112610eef57610eee610dd3565b5b8135610eff848260208601610e98565b91505092915050565b600080600060608486031215610f2157610f20610b66565b5b600084013567ffffffffffffffff811115610f3f57610f3e610b6b565b5b610f4b86828701610eda565b935050602084013567ffffffffffffffff811115610f6c57610f6b610b6b565b5b610f7886828701610eda565b925050604084013567ffffffffffffffff811115610f9957610f98610b6b565b5b610fa586828701610eda565b9150509250925092565b6000602082019050610fc46000830184610bd3565b92915050565b7f4e487b7100000000000000000000000000000000000000000000000000000000600052602260045260246000fd5b6000600282049050600182168061101157607f821691505b60208210810361102457611023610fca565b5b50919050565b7f4e6f7420617574686f72697a656420617070726f766572000000000000000000600082015250565b6000611060601783610bed565b915061106b8261102a565b602082019050919050565b6000602082019050818103600083015261108f81611053565b9050919050565b7f496e76616c69642073747564656e742049440000000000000000000000000000600082015250565b60006110cc601283610bed565b91506110d782611096565b602082019050919050565b600060208201905081810360008301526110fb816110bf565b9050919050565b7f5265636f6d6d656e646174696f6e206e6f742072657175657374656400000000600082015250565b6000611138601c83610bed565b915061114382611102565b602082019050919050565b600060208201905081810360008301526111678161112b565b9050919050565b7f4e487b7100000000000000000000000000000000000000000000000000000000600052601160045260246000fd5b60006111a882610b70565b91507fffffffffffffffffffffffffffffffffffffffffffffffffffffffffffffffff82036111da576111d961116e565b5b600182019050919050565b60008190508160005260206000209050919050565b60006020601f8301049050919050565b600082821b905092915050565b6000600883026112477fffffffffffffffffffffffffffffffffffffffffffffffffffffffffffffffff8261120a565b611251868361120a565b95508019841693508086168417925050509392505050565b6000819050919050565b600061128e61128961128484610b70565b611269565b610b70565b9050919050565b6000819050919050565b6112a883611273565b6112bc6112b482611295565b848454611217565b825550505050565b600090565b6112d16112c4565b6112dc81848461129f565b505050565b5b81811015611300576112f56000826112c9565b6001810190506112e2565b5050565b601f82111561134557611316816111e5565b61131f846111fa565b8101602085101561132e578190505b61134261133a856111fa565b8301826112e1565b50505b505050565b600082821c905092915050565b60006113686000198460080261134a565b1980831691505092915050565b60006113818383611357565b9150826002028217905092915050565b61139a82610be2565b67ffffffffffffffff8111156113b3576113b2610ddd565b5b6113bd8254610ff9565b6113c8828285611304565b600060209050601f8311600181146113fb57600084156113e9578287015190505b6113f38582611375565b86555061145b565b601f198416611409866111e5565b60005b828110156114315784890151825560018201915060208501945060208101905061140c565b8683101561144e578489015161144a601f891682611357565b8355505b6001600288020188555050505b505050505050565b7f4f6e6c79206f776e65722063616e20706572666f726d2074686973206163746960008201527f6f6e000000000000000000000000000000000000000000000000000000000000602082015250565b60006114bf602283610bed565b91506114ca82611463565b604082019050919050565b600060208201905081810360008301526114ee816114b2565b905091905056fea2646970667358221220b52dea6d2634bd3639206a467e18dd2c096e49e40a02c59fa600987fb31c271264736f6c63430008140033",
  "linkReferences": {},
  "deployedLinkReferences": {}
}